:100000000C945C000C946E000C946E000C946E00CA
:100010000C946E000C946E000C946E000C946E00A8
:100020000C946E000C946E000C946E000C946E0098
:100030000C946E000C946E000C946E000C946E0088
:100040000C9414010C946E000C946E000C946E00D1
:100050000C946E000C946E000C946E000C946E0068
:100060000C946E000C946E00000000002400270029
:100070002A0000000000250028002B0004040404CE
:100080000404040402020202020203030303030342
:10009000010204081020408001020408102001021F
:1000A00004081020000000080002010000030407FB
:1000B000000000000000000011241FBECFEFD8E0B8
:1000C000DEBFCDBF21E0A0E0B1E001C01D92A930AC
:1000D000B207E1F70E945E010C9401030C9400004A
:1000E00090E0FC01EC55FF4F2491FC01E057FF4FDD
:1000F0003491FC01E458FF4FE491EE23C9F0222330
:1001000039F0233001F1A8F4213019F1223029F11E
:10011000F0E0EE0FFF1FEE58FF4FA591B4918FB79F
:10012000F894EC91611126C030953E233C938FBF2B
:1001300008952730A9F02830C9F0243049F780917C
:1001400080008F7D03C0809180008F778093800036
:10015000DFCF84B58F7784BDDBCF84B58F7DFBCFB8
:100160008091B0008F778093B000D2CF8091B000A3
:100170008F7DF9CF3E2BDACF3FB7F8948091050100
:1001800090910601A0910701B091080126B5A89BA6
:1001900005C02F3F19F00196A11DB11D3FBFBA2F19
:1001A000A92F982F8827BC01CD01620F711D811DD9
:1001B000911D42E0660F771F881F991F4A95D1F75E
:1001C00008958F929F92AF92BF92CF92DF92EF925B
:1001D000FF926B017C010E94BC004B015C01C114C9
:1001E000D104E104F104B9F00E94BC006819790956
:1001F0008A099B09683E73408105910580F321E0DF
:10020000C21AD108E108F10888EE880E83E0981E32
:10021000A11CB11CE4CFFF90EF90DF90CF90BF9076
:10022000AF909F908F9008951F920F920FB60F92EC
:1002300011242F933F938F939F93AF93BF938091FC
:10024000010190910201A0910301B091040130914C
:10025000000123E0230F2D3758F50196A11DB11D94
:10026000209300018093010190930201A093030168
:10027000B09304018091050190910601A0910701BE
:10028000B09108010196A11DB11D809305019093C5
:100290000601A0930701B0930801BF91AF919F9110
:1002A0008F913F912F910F900FBE0F901F90189537
:1002B00026E8230F0296A11DB11DD2CF789484B5F4
:1002C000826084BD84B5816084BD85B5826085BD52
:1002D00085B5816085BD80916E00816080936E00E0
:1002E00010928100809181008260809381008091D2
:1002F0008100816080938100809180008160809383
:1003000080008091B10084608093B1008091B00042
:1003100081608093B00080917A00846080937A003D
:1003200080917A00826080937A0080917A00816067
:1003300080937A0080917A00806880937A0010928E
:10034000C100EBE9F0E02491E7E8F0E08491882334
:1003500099F090E0880F991FFC01E859FF4FA59193
:10036000B491FC01EE58FF4F859194918FB7F894AA
:10037000EC91E22BEC938FBF00E010E0CDE0D3E0F6
:10038000C12CD12C90EAE92E91E4F92E61E08BE0AA
:100390000E947000C701B6010E9481024B015C01FE
:1003A0000E94E10060E08BE00E947000C501B40192
:1003B0000E94E1002DEC3CEC4CEC5CE3C701B60183
:1003C0000E9414026B017C01219701F7CDE0D3E07C
:1003D000C12CD12CE12C8FE3F82E61E08BE00E9440
:1003E0007000C701B6010E9481024B015C010E94AE
:1003F000E10060E08BE00E947000C501B4010E9442
:10040000E1002DEC3CEC4CEC5CE3C701B6010E9432
:1004100015026B017C01219701F70115110509F403
:10042000ADCF0E940000AACF5058BB27AA270E9438
:100430002C020C94C7020E94B90238F00E94C0023C
:1004400020F039F49F3F19F426F40C94B6020EF410
:10045000E095E7FB0C94B002E92F0E94D80258F314
:10046000BA17620773078407950720F079F4A6F599
:100470000C94FA020EF4E0950B2EBA2FA02D0B016E
:10048000B90190010C01CA01A0011124FF27591BD9
:1004900099F0593F50F4503E68F11A16F040A22FDF
:1004A000232F342F4427585FF3CF46953795279550
:1004B000A795F0405395C9F77EF41F16BA0B620B4F
:1004C000730B840BBAF09150A1F0FF0FBB1F661F96
:1004D000771F881FC2F70EC0BA0F621F731F841FD9
:1004E00048F4879577956795B795F7959E3F08F0FF
:1004F000B0CF9395880F08F09927EE0F97958795C1
:1005000008950E94E00288F09F5798F0B92F99272C
:10051000B751B0F0E1F0660F771F881F991F1AF0EE
:10052000BA95C9F714C0B13091F00E94FA02B1E057
:1005300008950C94FA02672F782F8827B85F39F056
:10054000B93FCCF3869577956795B395D9F73EF487
:1005500090958095709561957F4F8F4F9F4F08952F
:1005600097F99F6780E870E060E008959FEF80EC66
:10057000089500240A941616170618060906089509
:1005800000240A9412161306140605060895092E6F
:100590000394000C11F4882352F0BB0F40F4BF2BDE
:1005A00011F460FF04C06F5F7F4F8F4F9F4F08951E
:1005B00057FD9058440F551F59F05F3F71F0479514
:1005C000880F97FB991F61F09F3F79F087950895F9
:1005D000121613061406551FF2CF4695F1DF08C018
:1005E000161617061806991FF1CF86957105610535
:1005F00008940895E894BB2766277727CB0197F9DD
:060600000895F894FFCFFD
:00000001FF
